000SP PARA                            CLIENTE CAIXA-POSTAL-TESTE         0212211704CON021217044                                                                                                                                                                                                                                                                                                                                                                                                                                                                                                                                                                                                                                                       
320CONHE021217044                                                                                                                                                                                                                                                                                                                                                                                                                                                                                                                                                                                                                                                                                                                                     
32113559178000119LW LOGISTICA E TRANSPORTES LTDA (ME-SP)                                                                                                                                                                                                                                                                                                                                                                                                                                                                                                                                                                                                                                                                                              
322LW LOG MEX0000100000001643903112021C000600000000000000650000000000000650012000000000000007800000000000000000000000000000000000000000000000000000000000000000000000000000000000000000000000000000000002   1355917800011959609123002463001000004710010000047100100000479   00000000   00000000   00000000   00000000   00000000   00000000   00000000   00000000   00000000   00000000   00000000   00000000   00000000   00000000   00000000   00000000   00000000   00000000   00000000   00000000   00000000   00000000   00000000   00000000   00000000   00000000   00000000   00000000   00000000   00000000   00000000   00000000   00000000   00000000   00000000   00000000   00000000INU5932 08                                            
322LW LOG MEX0000100000001644003112021C000040000000000000650000000000000650012000000000000007800000000000000000000000000000000000000000000000000000000000000000000000000000000000000000000000000000000002   135591780001195960912300246300100000471   00000000   00000000   00000000   00000000   00000000   00000000   00000000   00000000   00000000   00000000   00000000   00000000   00000000   00000000   00000000   00000000   00000000   00000000   00000000   00000000   00000000   00000000   00000000   00000000   00000000   00000000   00000000   00000000   00000000   00000000   00000000   00000000   00000000   00000000   00000000   00000000   00000000   00000000   00000000INU5932 08                                            
322LW LOG MEX0000100000001644103112021C000020000000000000650000000000000650012000000000000007800000000000000000000000000000000000000000000000000000000000000000000000000000000000000000000000000000000002   135591780001195960912300246300100000471   00000000   00000000   00000000   00000000   00000000   00000000   00000000   00000000   00000000   00000000   00000000   00000000   00000000   00000000   00000000   00000000   00000000   00000000   00000000   00000000   00000000   00000000   00000000   00000000   00000000   00000000   00000000   00000000   00000000   00000000   00000000   00000000   00000000   00000000   00000000   00000000   00000000   00000000   00000000INU5932 08                                            
322LW LOG MEX0000100000001644203112021C000160000000000000650000000000000650012000000000000007800000000000000000000000000000000000000000000000000000000000000000000000000000000000000000000000000000000002   135591780001195960912300246300100000479   00000000   00000000   00000000   00000000   00000000   00000000   00000000   00000000   00000000   00000000   00000000   00000000   00000000   00000000   00000000   00000000   00000000   00000000   00000000   00000000   00000000   00000000   00000000   00000000   00000000   00000000   00000000   00000000   00000000   00000000   00000000   00000000   00000000   00000000   00000000   00000000   00000000   00000000   00000000INU5932 08                                            
322LW LOG MEX0000100000001644303112021C000040000000000000650000000000000650012000000000000007800000000000000000000000000000000000000000000000000000000000000000000000000000000000000000000000000000000002   135591780001195960912300246300100000480   00000000   00000000   00000000   00000000   00000000   00000000   00000000   00000000   00000000   00000000   00000000   00000000   00000000   00000000   00000000   00000000   00000000   00000000   00000000   00000000   00000000   00000000   00000000   00000000   00000000   00000000   00000000   00000000   00000000   00000000   00000000   00000000   00000000   00000000   00000000   00000000   00000000   00000000   00000000INU5932 08                                            
322LW LOG MEX0000100000001644403112021C000010000000000000650000000000000650012000000000000007800000000000000000000000000000000000000000000000000000000000000000000000000000000000000000000000000000000002   135591780001195960912300246300100000480   00000000   00000000   00000000   00000000   00000000   00000000   00000000   00000000   00000000   00000000   00000000   00000000   00000000   00000000   00000000   00000000   00000000   00000000   00000000   00000000   00000000   00000000   00000000   00000000   00000000   00000000   00000000   00000000   00000000   00000000   00000000   00000000   00000000   00000000   00000000   00000000   00000000   00000000   00000000INU5932 08                                            
322LW LOG MEX0000100000001643503112021C000130000000000000000000000000000000000000000000000000000000000000000000000000000000000000000000000000000000000000000000000000000000000000000000000000000000000002   135591780001195960912300246300100000465   00000000   00000000   00000000   00000000   00000000   00000000   00000000   00000000   00000000   00000000   00000000   00000000   00000000   00000000   00000000   00000000   00000000   00000000   00000000   00000000   00000000   00000000   00000000   00000000   00000000   00000000   00000000   00000000   00000000   00000000   00000000   00000000   00000000   00000000   00000000   00000000   00000000   00000000   00000000INU5932 08                                            
322LW LOG MEX0000100000001643603112021C003490000000000000000000000000000000000000000000000000000000000000000000000000000000000000000000000000000000000000000000000000000000000000000000000000000000000002   13559178000119596091230024630010000045500100000457001000004570010000045700100000458001000004590010000045900100000459001000004590010000046000100000460001000004610010000046200100000462001000004640010000046900100000469001000004690010000046900100000471001000004720010000047200100000472   00000000   00000000   00000000   00000000   00000000   00000000   00000000   00000000   00000000   00000000   00000000   00000000   00000000   00000000   00000000   00000000   00000000INU5932 08                                            
322LW LOG MEX0000100000001643703112021C000020000000000000650000000000000650012000000000000007800000000000000000000000000000000000000000000000000000000000000000000000000000000000000000000000000000000002   135591780001195960912300246300100000469   00000000   00000000   00000000   00000000   00000000   00000000   00000000   00000000   00000000   00000000   00000000   00000000   00000000   00000000   00000000   00000000   00000000   00000000   00000000   00000000   00000000   00000000   00000000   00000000   00000000   00000000   00000000   00000000   00000000   00000000   00000000   00000000   00000000   00000000   00000000   00000000   00000000   00000000   00000000INU5932 08                                            
322LW LOG MEX0000100000001643803112021C000050000000000000650000000000000650012000000000000007800000000000000000000000000000000000000000000000000000000000000000000000000000000000000000000000000000000002   135591780001195960912300246300100000471   00000000   00000000   00000000   00000000   00000000   00000000   00000000   00000000   00000000   00000000   00000000   00000000   00000000   00000000   00000000   00000000   00000000   00000000   00000000   00000000   00000000   00000000   00000000   00000000   00000000   00000000   00000000   00000000   00000000   00000000   00000000   00000000   00000000   00000000   00000000   00000000   00000000   00000000   00000000INU5932 08                                            
322LW LOG MEX0000100000001644504112021C001870000000000000000000000000000000000000000000000000000000000000000000000000000000000000000000000000000000000000000000000000000000000000000000000000000000000002   13559178000119596091230024630010000046500100000466001000004690010000046900100000470001000004720010000047200100000473001000004730010000047300100000473001000004740010000047400100000474001000004740010000047400100000475001000004750010000047500100000475001000004750010000047500100000476001000004760010000047600100000476001000004760010000047700100000477001000004770010000047700100000477001000004770010000047800100000478   00000000   00000000   00000000   00000000   00000000INU5932 08                                            
322LW LOG MEX0000100000001644604112021C000810000000000000000000000000000000000000000000000000000000000000000000000000000000000000000000000000000000000000000000000000000000000000000000000000000000000002   13559178000119596091230024630010000046400100000469001000004690010000047000100000470001000004700010000047000100000470001000004700010000047000100000470001000004700010000047200100000474   00000000   00000000   00000000   00000000   00000000   00000000   00000000   00000000   00000000   00000000   00000000   00000000   00000000   00000000   00000000   00000000   00000000   00000000   00000000   00000000   00000000   00000000   00000000   00000000   00000000   00000000INU5932 08                                            
322LW LOG MEX0000100000001644704112021C001090000000000000000000000000000000000000000000000000000000000000000000000000000000000000000000000000000000000000000000000000000000000000000000000000000000000002   135591780001195960912300246300100000471001000004720010000047200100000472001000004730010000047800100000480   00000000   00000000   00000000   00000000   00000000   00000000   00000000   00000000   00000000   00000000   00000000   00000000   00000000   00000000   00000000   00000000   00000000   00000000   00000000   00000000   00000000   00000000   00000000   00000000   00000000   00000000   00000000   00000000   00000000   00000000   00000000   00000000   00000000INU5932 08                                            
322LW LOG MEX0000100000001644904112021C000050000000000000650000000000000650012000000000000007800000000000000000000000000000000000000000000000000000000000000000000000000000000000000000000000000000000002   135591780001195960912300246300100000480   00000000   00000000   00000000   00000000   00000000   00000000   00000000   00000000   00000000   00000000   00000000   00000000   00000000   00000000   00000000   00000000   00000000   00000000   00000000   00000000   00000000   00000000   00000000   00000000   00000000   00000000   00000000   00000000   00000000   00000000   00000000   00000000   00000000   00000000   00000000   00000000   00000000   00000000   00000000INU5932 08                                            
322LW LOG MEX0000100000001644805112021C002730000000000000000000000000000000000000000000000000000000000000000000000000000000000000000000000000000000000000000000000000000000000000000000000000000000000002   13559178000119596091230024630010000047100100000471001000004720010000047900100000480001000004830010000048300100000483   00000000   00000000   00000000   00000000   00000000   00000000   00000000   00000000   00000000   00000000   00000000   00000000   00000000   00000000   00000000   00000000   00000000   00000000   00000000   00000000   00000000   00000000   00000000   00000000   00000000   00000000   00000000   00000000   00000000   00000000   00000000   00000000INU5932 08                                            
322LW LOG MEX0000100000001645005112021C000040000000000000650000000000000650012000000000000007800000000000000000000000000000000000000000000000000000000000000000000000000000000000000000000000000000000002   13559178000119596091230024630010000048200100000482   00000000   00000000   00000000   00000000   00000000   00000000   00000000   00000000   00000000   00000000   00000000   00000000   00000000   00000000   00000000   00000000   00000000   00000000   00000000   00000000   00000000   00000000   00000000   00000000   00000000   00000000   00000000   00000000   00000000   00000000   00000000   00000000   00000000   00000000   00000000   00000000   00000000   00000000INU5932 08                                            
322LW LOG MEX0000100000001645105112021C000140000000000000650000000000000650012000000000000007800000000000000000000000000000000000000000000000000000000000000000000000000000000000000000000000000000000002   135591780001195960912300246300100000481   00000000   00000000   00000000   00000000   00000000   00000000   00000000   00000000   00000000   00000000   00000000   00000000   00000000   00000000   00000000   00000000   00000000   00000000   00000000   00000000   00000000   00000000   00000000   00000000   00000000   00000000   00000000   00000000   00000000   00000000   00000000   00000000   00000000   00000000   00000000   00000000   00000000   00000000   00000000INU5932 08                                            
322LW LOG MEX0000100000001645205112021C000100000000000000650000000000000650012000000000000007800000000000000000000000000000000000000000000000000000000000000000000000000000000000000000000000000000000002   13559178000119596091230024630010000047900100000479   00000000   00000000   00000000   00000000   00000000   00000000   00000000   00000000   00000000   00000000   00000000   00000000   00000000   00000000   00000000   00000000   00000000   00000000   00000000   00000000   00000000   00000000   00000000   00000000   00000000   00000000   00000000   00000000   00000000   00000000   00000000   00000000   00000000   00000000   00000000   00000000   00000000   00000000INU5932 08                                            
322LW LOG MEX0000100000001645305112021C001260000000000000650000000000000650012000000000000007800000000000000000000000000000000000000000000000000000000000000000000000000000000000000000000000000000000002   13559178000119596091230024630010000046700100000480   00000000   00000000   00000000   00000000   00000000   00000000   00000000   00000000   00000000   00000000   00000000   00000000   00000000   00000000   00000000   00000000   00000000   00000000   00000000   00000000   00000000   00000000   00000000   00000000   00000000   00000000   00000000   00000000   00000000   00000000   00000000   00000000   00000000   00000000   00000000   00000000   00000000   00000000INU5932 08                                            
322LW LOG MEX0000100000001645408112021C000050000000000000000000000000000000000000000000000000000000000000000000000000000000000000000000000000000000000000000000000000000000000000000000000000000000000002   135591780001195960912300246300100000485   00000000   00000000   00000000   00000000   00000000   00000000   00000000   00000000   00000000   00000000   00000000   00000000   00000000   00000000   00000000   00000000   00000000   00000000   00000000   00000000   00000000   00000000   00000000   00000000   00000000   00000000   00000000   00000000   00000000   00000000   00000000   00000000   00000000   00000000   00000000   00000000   00000000   00000000   00000000INU5932 08                                            
322LW LOG MEX0000100000001645508112021C001690000000000000000000000000000000000000000000000000000000000000000000000000000000000000000000000000000000000000000000000000000000000000000000000000000000000002   135591780001195960912300246300100000473001000004730010000047300100000473001000004730010000047400100000474001000004740010000047400100000475001000004750010000047500100000475001000004760010000047600100000476001000004760010000047600100000477001000004770010000047700100000477001000004780010000047800100000478001000004780010000047800100000479001000004790010000047900100000479001000004800010000048100100000481   00000000   00000000   00000000   00000000   00000000   00000000INU5932 08                                            
322LW LOG MEX0000100000001645609112021C000310000000000000000000000000000000000000000000000000000000000000000000000000000000000000000000000000000000000000000000000000000000000000000000000000000000000002   13559178000119596091230024630010000046900100000485   00000000   00000000   00000000   00000000   00000000   00000000   00000000   00000000   00000000   00000000   00000000   00000000   00000000   00000000   00000000   00000000   00000000   00000000   00000000   00000000   00000000   00000000   00000000   00000000   00000000   00000000   00000000   00000000   00000000   00000000   00000000   00000000   00000000   00000000   00000000   00000000   00000000   00000000INU5932 08                                            
322LW LOG MEX0000100000001645710112021C004580000000000000000000000000000000000000000000000000000000000000000000000000000000000000000000000000000000000000000000000000000000000000000000000000000000000002   135591780001195960912300246300100000482001000004840010000048700100000487   00000000   00000000   00000000   00000000   00000000   00000000   00000000   00000000   00000000   00000000   00000000   00000000   00000000   00000000   00000000   00000000   00000000   00000000   00000000   00000000   00000000   00000000   00000000   00000000   00000000   00000000   00000000   00000000   00000000   00000000   00000000   00000000   00000000   00000000   00000000   00000000INU5932 08                                            
322LW LOG MEX0000100000001645810112021C001890000000000000000000000000000000000000000000000000000000000000000000000000000000000000000000000000000000000000000000000000000000000000000000000000000000000002   1355917800011959609123002463001000004820010000048200100000482001000004830010000048300100000483001000004830010000048400100000484001000004840010000048400100000484001000004840010000048500100000486   00000000   00000000   00000000   00000000   00000000   00000000   00000000   00000000   00000000   00000000   00000000   00000000   00000000   00000000   00000000   00000000   00000000   00000000   00000000   00000000   00000000   00000000   00000000   00000000   00000000INU5932 08                                            
322LW LOG MEX0000100000001645910112021C000020000000000000650000000000000650012000000000000007800000000000000000000000000000000000000000000000000000000000000000000000000000000000000000000000000000000002   135591780001195960912300246300100000488   00000000   00000000   00000000   00000000   00000000   00000000   00000000   00000000   00000000   00000000   00000000   00000000   00000000   00000000   00000000   00000000   00000000   00000000   00000000   00000000   00000000   00000000   00000000   00000000   00000000   00000000   00000000   00000000   00000000   00000000   00000000   00000000   00000000   00000000   00000000   00000000   00000000   00000000   00000000INU5932 08                                            
322LW LOG MEX0000100000001646010112021C000050000000000000650000000000000650012000000000000007800000000000000000000000000000000000000000000000000000000000000000000000000000000000000000000000000000000002   135591780001195960912300246300100000485   00000000   00000000   00000000   00000000   00000000   00000000   00000000   00000000   00000000   00000000   00000000   00000000   00000000   00000000   00000000   00000000   00000000   00000000   00000000   00000000   00000000   00000000   00000000   00000000   00000000   00000000   00000000   00000000   00000000   00000000   00000000   00000000   00000000   00000000   00000000   00000000   00000000   00000000   00000000INU5932 08                                            
322LW LOG MEX0000100000001646110112021C000150000000000000650000000000000650012000000000000007800000000000000000000000000000000000000000000000000000000000000000000000000000000000000000000000000000000002   1355917800011959609123002463001000004860010000048700100000487   00000000   00000000   00000000   00000000   00000000   00000000   00000000   00000000   00000000   00000000   00000000   00000000   00000000   00000000   00000000   00000000   00000000   00000000   00000000   00000000   00000000   00000000   00000000   00000000   00000000   00000000   00000000   00000000   00000000   00000000   00000000   00000000   00000000   00000000   00000000   00000000   00000000INU5932 08                                            
322LW LOG MEX0000100000001646210112021C000020000000000000650000000000000650012000000000000007800000000000000000000000000000000000000000000000000000000000000000000000000000000000000000000000000000000002   135591780001195960912300246300100000486   00000000   00000000   00000000   00000000   00000000   00000000   00000000   00000000   00000000   00000000   00000000   00000000   00000000   00000000   00000000   00000000   00000000   00000000   00000000   00000000   00000000   00000000   00000000   00000000   00000000   00000000   00000000   00000000   00000000   00000000   00000000   00000000   00000000   00000000   00000000   00000000   00000000   00000000   00000000INU5932 08                                            
322LW LOG MEX0000100000001646310112021C000050000000000000650000000000000650012000000000000007800000000000000000000000000000000000000000000000000000000000000000000000000000000000000000000000000000000002   135591780001195960912300246300100000480   00000000   00000000   00000000   00000000   00000000   00000000   00000000   00000000   00000000   00000000   00000000   00000000   00000000   00000000   00000000   00000000   00000000   00000000   00000000   00000000   00000000   00000000   00000000   00000000   00000000   00000000   00000000   00000000   00000000   00000000   00000000   00000000   00000000   00000000   00000000   00000000   00000000   00000000   00000000INU5932 08                                            
322LW LOG MEX0000100000001646711112021C002850000000000000000000000000000000000000000000000000000000000000000000000000000000000000000000000000000000000000000000000000000000000000000000000000000000000002   1355917800011959609123002463001000004810010000048100100000481001000004820010000048200100000483001000004840010000048400100000485001000004850010000048500100000486   00000000   00000000   00000000   00000000   00000000   00000000   00000000   00000000   00000000   00000000   00000000   00000000   00000000   00000000   00000000   00000000   00000000   00000000   00000000   00000000   00000000   00000000   00000000   00000000   00000000   00000000   00000000   00000000INU5932 08                                            
322LW LOG MEX0000100000001646811112021C000050000000000000650000000000000650012000000000000007800000000000000000000000000000000000000000000000000000000000000000000000000000000000000000000000000000000002   135591780001195960912300246300100000491   00000000   00000000   00000000   00000000   00000000   00000000   00000000   00000000   00000000   00000000   00000000   00000000   00000000   00000000   00000000   00000000   00000000   00000000   00000000   00000000   00000000   00000000   00000000   00000000   00000000   00000000   00000000   00000000   00000000   00000000   00000000   00000000   00000000   00000000   00000000   00000000   00000000   00000000   00000000INU5932 08                                            
322LW LOG MEX0000100000001647112112021C002060000000000129250000000000129250012000000000001551000000000000000000000000000000000000000000000000000000000000000000000000000000000000000000000000000000000002   13559178000119596091230024630010000048700100000487001000004880010000049000100000495001000004960010000049600100000496001000004970010000049700100000497   00000000   00000000   00000000   00000000   00000000   00000000   00000000   00000000   00000000   00000000   00000000   00000000   00000000   00000000   00000000   00000000   00000000   00000000   00000000   00000000   00000000   00000000   00000000   00000000   00000000   00000000   00000000   00000000   00000000INU5932 08                                            
322LW LOG MEX0000100000001647212112021C000150000000000000650000000000000650012000000000000007800000000000000000000000000000000000000000000000000000000000000000000000000000000000000000000000000000000002   135591780001195960912300246300100000489   00000000   00000000   00000000   00000000   00000000   00000000   00000000   00000000   00000000   00000000   00000000   00000000   00000000   00000000   00000000   00000000   00000000   00000000   00000000   00000000   00000000   00000000   00000000   00000000   00000000   00000000   00000000   00000000   00000000   00000000   00000000   00000000   00000000   00000000   00000000   00000000   00000000   00000000   00000000INU5932 08                                            
322LW LOG MEX0000100000001647312112021C001530000000000000650000000000000650012000000000000007800000000000000000000000000000000000000000000000000000000000000000000000000000000000000000000000000000000002   135591780001195960912300246300100000488001000004890010000048900100000490001000004900010000049000100000490001000004940010000049400100000495001000004950010000049500100000495001000004960010000049700100000497   00000000   00000000   00000000   00000000   00000000   00000000   00000000   00000000   00000000   00000000   00000000   00000000   00000000   00000000   00000000   00000000   00000000   00000000   00000000   00000000   00000000   00000000   00000000   00000000INU5932 08                                            
322LW LOG MEX0000100000001647412112021C000270000000000000650000000000000650012000000000000007800000000000000000000000000000000000000000000000000000000000000000000000000000000000000000000000000000000002   13559178000119596091230024630010000049000100000493001000004930010000049500100000496   00000000   00000000   00000000   00000000   00000000   00000000   00000000   00000000   00000000   00000000   00000000   00000000   00000000   00000000   00000000   00000000   00000000   00000000   00000000   00000000   00000000   00000000   00000000   00000000   00000000   00000000   00000000   00000000   00000000   00000000   00000000   00000000   00000000   00000000   00000000INU5932 08                                            
322LW LOG MEX0000100000001648116112021C000050000000000000650000000000000650012000000000000007800000000000000000000000000000000000000000000000000000000000000000000000000000000000000000000000000000000002   135591780001195960912300246300100000494   00000000   00000000   00000000   00000000   00000000   00000000   00000000   00000000   00000000   00000000   00000000   00000000   00000000   00000000   00000000   00000000   00000000   00000000   00000000   00000000   00000000   00000000   00000000   00000000   00000000   00000000   00000000   00000000   00000000   00000000   00000000   00000000   00000000   00000000   00000000   00000000   00000000   00000000   00000000INU5932 08                                            
322LW LOG MEX0000100000001647516112021C000050000000000000000000000000000000000000000000000000000000000000000000000000000000000000000000000000000000000000000000000000000000000000000000000000000000000002   135591780001195960912300246300100000485   00000000   00000000   00000000   00000000   00000000   00000000   00000000   00000000   00000000   00000000   00000000   00000000   00000000   00000000   00000000   00000000   00000000   00000000   00000000   00000000   00000000   00000000   00000000   00000000   00000000   00000000   00000000   00000000   00000000   00000000   00000000   00000000   00000000   00000000   00000000   00000000   00000000   00000000   00000000INU5932 08                                            
322LW LOG MEX0000100000001647616112021C000070000000000000000000000000000000000000000000000000000000000000000000000000000000000000000000000000000000000000000000000000000000000000000000000000000000000002   135591780001195960912300246300100000497   00000000   00000000   00000000   00000000   00000000   00000000   00000000   00000000   00000000   00000000   00000000   00000000   00000000   00000000   00000000   00000000   00000000   00000000   00000000   00000000   00000000   00000000   00000000   00000000   00000000   00000000   00000000   00000000   00000000   00000000   00000000   00000000   00000000   00000000   00000000   00000000   00000000   00000000   00000000INU5932 08                                            
322LW LOG MEX0000100000001647716112021C000520000000000000000000000000000000000000000000000000000000000000000000000000000000000000000000000000000000000000000000000000000000000000000000000000000000000002   1355917800011959609123002463001000004870010000049500100000495   00000000   00000000   00000000   00000000   00000000   00000000   00000000   00000000   00000000   00000000   00000000   00000000   00000000   00000000   00000000   00000000   00000000   00000000   00000000   00000000   00000000   00000000   00000000   00000000   00000000   00000000   00000000   00000000   00000000   00000000   00000000   00000000   00000000   00000000   00000000   00000000   00000000INU5932 08                                            
322LW LOG MEX0000100000001647816112021C008530000000000000000000000000000000000000000000000000000000000000000000000000000000000000000000000000000000000000000000000000000000000000000000000000000000000002   1355917800011959609123002463001000004910010000049100100000491001000004910010000049100100000492001000004960010000049600100000497   00000000   00000000   00000000   00000000   00000000   00000000   00000000   00000000   00000000   00000000   00000000   00000000   00000000   00000000   00000000   00000000   00000000   00000000   00000000   00000000   00000000   00000000   00000000   00000000   00000000   00000000   00000000   00000000   00000000   00000000   00000000INU5932 08                                            
322LW LOG MEX0000100000001647917112021C000120000000000000000000000000000000000000000000000000000000000000000000000000000000000000000000000000000000000000000000000000000000000000000000000000000000000002   135591780001195960912300246300100000492001000004950010000049900100000502   00000000   00000000   00000000   00000000   00000000   00000000   00000000   00000000   00000000   00000000   00000000   00000000   00000000   00000000   00000000   00000000   00000000   00000000   00000000   00000000   00000000   00000000   00000000   00000000   00000000   00000000   00000000   00000000   00000000   00000000   00000000   00000000   00000000   00000000   00000000   00000000INU5932 08                                            
322LW LOG MEX0000100000001648017112021C002140000000000000000000000000000000000000000000000000000000000000000000000000000000000000000000000000000000000000000000000000000000000000000000000000000000000002   1355917800011959609123002463001000004890010000049300100000493001000004930010000049600100000496001000004990010000050100100000503   00000000   00000000   00000000   00000000   00000000   00000000   00000000   00000000   00000000   00000000   00000000   00000000   00000000   00000000   00000000   00000000   00000000   00000000   00000000   00000000   00000000   00000000   00000000   00000000   00000000   00000000   00000000   00000000   00000000   00000000   00000000INU5932 08                                            
322LW LOG MEX0000100000001648217112021C000530000000000000650000000000000650012000000000000007800000000000000000000000000000000000000000000000000000000000000000000000000000000000000000000000000000000002   135591780001195960912300246300100000499001000004990010000050000100000501   00000000   00000000   00000000   00000000   00000000   00000000   00000000   00000000   00000000   00000000   00000000   00000000   00000000   00000000   00000000   00000000   00000000   00000000   00000000   00000000   00000000   00000000   00000000   00000000   00000000   00000000   00000000   00000000   00000000   00000000   00000000   00000000   00000000   00000000   00000000   00000000INU5932 08                                            
322LW LOG MEX0000100000001648317112021C000090000000000000650000000000000650012000000000000007800000000000000000000000000000000000000000000000000000000000000000000000000000000000000000000000000000000002   135591780001195960912300246300100000503   00000000   00000000   00000000   00000000   00000000   00000000   00000000   00000000   00000000   00000000   00000000   00000000   00000000   00000000   00000000   00000000   00000000   00000000   00000000   00000000   00000000   00000000   00000000   00000000   00000000   00000000   00000000   00000000   00000000   00000000   00000000   00000000   00000000   00000000   00000000   00000000   00000000   00000000   00000000INU5932 08                                            
322LW LOG MEX0000100000001648417112021C000550000000000000650000000000000650012000000000000007800000000000000000000000000000000000000000000000000000000000000000000000000000000000000000000000000000000002   135591780001195960912300246300100000501   00000000   00000000   00000000   00000000   00000000   00000000   00000000   00000000   00000000   00000000   00000000   00000000   00000000   00000000   00000000   00000000   00000000   00000000   00000000   00000000   00000000   00000000   00000000   00000000   00000000   00000000   00000000   00000000   00000000   00000000   00000000   00000000   00000000   00000000   00000000   00000000   00000000   00000000   00000000INU5932 08                                            
322LW LOG MEX0000100000001648517112021C000420000000000000650000000000000650012000000000000007800000000000000000000000000000000000000000000000000000000000000000000000000000000000000000000000000000000002   135591780001195960912300246300100000500   00000000   00000000   00000000   00000000   00000000   00000000   00000000   00000000   00000000   00000000   00000000   00000000   00000000   00000000   00000000   00000000   00000000   00000000   00000000   00000000   00000000   00000000   00000000   00000000   00000000   00000000   00000000   00000000   00000000   00000000   00000000   00000000   00000000   00000000   00000000   00000000   00000000   00000000   00000000INU5932 08                                            
322LW LOG MEX0000100000001648617112021C000580000000000000650000000000000650012000000000000007800000000000000000000000000000000000000000000000000000000000000000000000000000000000000000000000000000000002   135591780001195960912300246300100000501   00000000   00000000   00000000   00000000   00000000   00000000   00000000   00000000   00000000   00000000   00000000   00000000   00000000   00000000   00000000   00000000   00000000   00000000   00000000   00000000   00000000   00000000   00000000   00000000   00000000   00000000   00000000   00000000   00000000   00000000   00000000   00000000   00000000   00000000   00000000   00000000   00000000   00000000   00000000INU5932 08                                            
322LW LOG MEX0000100000001648717112021C000100000000000000650000000000000650012000000000000007800000000000000000000000000000000000000000000000000000000000000000000000000000000000000000000000000000000002   135591780001195960912300246300100000501   00000000   00000000   00000000   00000000   00000000   00000000   00000000   00000000   00000000   00000000   00000000   00000000   00000000   00000000   00000000   00000000   00000000   00000000   00000000   00000000   00000000   00000000   00000000   00000000   00000000   00000000   00000000   00000000   00000000   00000000   00000000   00000000   00000000   00000000   00000000   00000000   00000000   00000000   00000000INU5932 08                                            
322LW LOG MEX0000100000001648818112021C001140000000000000000000000000000000000000000000000000000000000000000000000000000000000000000000000000000000000000000000000000000000000000000000000000000000000002   1355917800011959609123002463001000004900010000049000100000491001000004920010000049200100000492001000004930010000049300100000494001000004940010000049500100000496001000004990010000050200100000502001000005020010000050400100000505   00000000   00000000   00000000   00000000   00000000   00000000   00000000   00000000   00000000   00000000   00000000   00000000   00000000   00000000   00000000   00000000   00000000   00000000   00000000   00000000   00000000   00000000INU5932 08                                            
322LW LOG MEX0000100000001648918112021C001280000000000000000000000000000000000000000000000000000000000000000000000000000000000000000000000000000000000000000000000000000000000000000000000000000000000002   135591780001195960912300246300100000490001000004900010000050200100000506   00000000   00000000   00000000   00000000   00000000   00000000   00000000   00000000   00000000   00000000   00000000   00000000   00000000   00000000   00000000   00000000   00000000   00000000   00000000   00000000   00000000   00000000   00000000   00000000   00000000   00000000   00000000   00000000   00000000   00000000   00000000   00000000   00000000   00000000   00000000   00000000INU5932 08                                            
322LW LOG MEX0000100000001649018112021C000050000000000000650000000000000650012000000000000007800000000000000000000000000000000000000000000000000000000000000000000000000000000000000000000000000000000002   135591780001195960912300246300100000494   00000000   00000000   00000000   00000000   00000000   00000000   00000000   00000000   00000000   00000000   00000000   00000000   00000000   00000000   00000000   00000000   00000000   00000000   00000000   00000000   00000000   00000000   00000000   00000000   00000000   00000000   00000000   00000000   00000000   00000000   00000000   00000000   00000000   00000000   00000000   00000000   00000000   00000000   00000000INU5932 08                                            
322LW LOG MEX0000100000001649118112021C000050000000000000650000000000000650012000000000000007800000000000000000000000000000000000000000000000000000000000000000000000000000000000000000000000000000000002   135591780001195960912300246300100000506   00000000   00000000   00000000   00000000   00000000   00000000   00000000   00000000   00000000   00000000   00000000   00000000   00000000   00000000   00000000   00000000   00000000   00000000   00000000   00000000   00000000   00000000   00000000   00000000   00000000   00000000   00000000   00000000   00000000   00000000   00000000   00000000   00000000   00000000   00000000   00000000   00000000   00000000   00000000INU5932 08                                            
322LW LOG MEX0000100000001649519112021C000560000000000000000000000000000000000000000000000000000000000000000000000000000000000000000000000000000000000000000000000000000000000000000000000000000000000002   1355917800011959609123002463001000004990010000049900100000499001000005020010000050200100000507   00000000   00000000   00000000   00000000   00000000   00000000   00000000   00000000   00000000   00000000   00000000   00000000   00000000   00000000   00000000   00000000   00000000   00000000   00000000   00000000   00000000   00000000   00000000   00000000   00000000   00000000   00000000   00000000   00000000   00000000   00000000   00000000   00000000   00000000INU5932 08                                            
322LW LOG MEX0000100000001649619112021C000050000000000000650000000000000650012000000000000007800000000000000000000000000000000000000000000000000000000000000000000000000000000000000000000000000000000002   135591780001195960912300246300100000509   00000000   00000000   00000000   00000000   00000000   00000000   00000000   00000000   00000000   00000000   00000000   00000000   00000000   00000000   00000000   00000000   00000000   00000000   00000000   00000000   00000000   00000000   00000000   00000000   00000000   00000000   00000000   00000000   00000000   00000000   00000000   00000000   00000000   00000000   00000000   00000000   00000000   00000000   00000000INU5932 08                                            
322LW LOG MEX0000100000001649719112021C000470000000000000650000000000000650012000000000000007800000000000000000000000000000000000000000000000000000000000000000000000000000000000000000000000000000000002   135591780001195960912300246300100000509001000005090010000050900100000509   00000000   00000000   00000000   00000000   00000000   00000000   00000000   00000000   00000000   00000000   00000000   00000000   00000000   00000000   00000000   00000000   00000000   00000000   00000000   00000000   00000000   00000000   00000000   00000000   00000000   00000000   00000000   00000000   00000000   00000000   00000000   00000000   00000000   00000000   00000000   00000000INU5932 08                                            
322LW LOG MEX0000100000001650122112021C000370000000000000000000000000000000000000000000000000000000000000000000000000000000000000000000000000000000000000000000000000000000000000000000000000000000000002   135591780001195960912300246300100000502001000005060010000051000100000511   00000000   00000000   00000000   00000000   00000000   00000000   00000000   00000000   00000000   00000000   00000000   00000000   00000000   00000000   00000000   00000000   00000000   00000000   00000000   00000000   00000000   00000000   00000000   00000000   00000000   00000000   00000000   00000000   00000000   00000000   00000000   00000000   00000000   00000000   00000000   00000000INU5932 08                                            
322LW LOG MEX0000100000001650222112021C000060000000000000650000000000000650012000000000000007800000000000000000000000000000000000000000000000000000000000000000000000000000000000000000000000000000000002   135591780001195960912300246300100000512   00000000   00000000   00000000   00000000   00000000   00000000   00000000   00000000   00000000   00000000   00000000   00000000   00000000   00000000   00000000   00000000   00000000   00000000   00000000   00000000   00000000   00000000   00000000   00000000   00000000   00000000   00000000   00000000   00000000   00000000   00000000   00000000   00000000   00000000   00000000   00000000   00000000   00000000   00000000INU5932 08                                            
322LW LOG MEX0000100000001650322112021C000120000000000000650000000000000650012000000000000007800000000000000000000000000000000000000000000000000000000000000000000000000000000000000000000000000000000002   13559178000119596091230024630010000051200100000512   00000000   00000000   00000000   00000000   00000000   00000000   00000000   00000000   00000000   00000000   00000000   00000000   00000000   00000000   00000000   00000000   00000000   00000000   00000000   00000000   00000000   00000000   00000000   00000000   00000000   00000000   00000000   00000000   00000000   00000000   00000000   00000000   00000000   00000000   00000000   00000000   00000000   00000000INU5932 08                                            
322LW LOG MEX0000100000001650422112021C000240000000000000650000000000000650012000000000000007800000000000000000000000000000000000000000000000000000000000000000000000000000000000000000000000000000000002   135591780001195960912300246300100000511   00000000   00000000   00000000   00000000   00000000   00000000   00000000   00000000   00000000   00000000   00000000   00000000   00000000   00000000   00000000   00000000   00000000   00000000   00000000   00000000   00000000   00000000   00000000   00000000   00000000   00000000   00000000   00000000   00000000   00000000   00000000   00000000   00000000   00000000   00000000   00000000   00000000   00000000   00000000INU5932 08                                            
322LW LOG MEX0000100000001650723112021C000150000000000000000000000000000000000000000000000000000000000000000000000000000000000000000000000000000000000000000000000000000000000000000000000000000000000002   1355917800011959609123002463001000005140010000051800100000524   00000000   00000000   00000000   00000000   00000000   00000000   00000000   00000000   00000000   00000000   00000000   00000000   00000000   00000000   00000000   00000000   00000000   00000000   00000000   00000000   00000000   00000000   00000000   00000000   00000000   00000000   00000000   00000000   00000000   00000000   00000000   00000000   00000000   00000000   00000000   00000000   00000000INU5932 08                                            
322LW LOG MEX0000100000001650823112021C001150000000000000000000000000000000000000000000000000000000000000000000000000000000000000000000000000000000000000000000000000000000000000000000000000000000000002   135591780001195960912300246300100000504001000005040010000050400100000511001000005110010000051200100000514001000005140010000051400100000515001000005150010000051500100000515001000005150010000051500100000515001000005150010000051600100000517001000005190010000051900100000520   00000000   00000000   00000000   00000000   00000000   00000000   00000000   00000000   00000000   00000000   00000000   00000000   00000000   00000000   00000000   00000000   00000000   00000000INU5932 08                                            
322LW LOG MEX0000100000001650924112021C000950000000000000000000000000000000000000000000000000000000000000000000000000000000000000000000000000000000000000000000000000000000000000000000000000000000000002   135591780001195960912300246300100000504001000005040010000050400100000504001000005050010000050500100000511001000005110010000051100100000513001000005170010000052000100000526   00000000   00000000   00000000   00000000   00000000   00000000   00000000   00000000   00000000   00000000   00000000   00000000   00000000   00000000   00000000   00000000   00000000   00000000   00000000   00000000   00000000   00000000   00000000   00000000   00000000   00000000   00000000INU5932 08                                            
322LW LOG MEX0000100000001651024112021C000050000000000000650000000000000650012000000000000007800000000000000000000000000000000000000000000000000000000000000000000000000000000000000000000000000000000002   135591780001195960912300246300100000517   00000000   00000000   00000000   00000000   00000000   00000000   00000000   00000000   00000000   00000000   00000000   00000000   00000000   00000000   00000000   00000000   00000000   00000000   00000000   00000000   00000000   00000000   00000000   00000000   00000000   00000000   00000000   00000000   00000000   00000000   00000000   00000000   00000000   00000000   00000000   00000000   00000000   00000000   00000000INU5932 08                                            
322LW LOG MEX0000100000001651124112021C001070000000000000650000000000000650012000000000000007800000000000000000000000000000000000000000000000000000000000000000000000000000000000000000000000000000000002   13559178000119596091230024630010000052400100000525   00000000   00000000   00000000   00000000   00000000   00000000   00000000   00000000   00000000   00000000   00000000   00000000   00000000   00000000   00000000   00000000   00000000   00000000   00000000   00000000   00000000   00000000   00000000   00000000   00000000   00000000   00000000   00000000   00000000   00000000   00000000   00000000   00000000   00000000   00000000   00000000   00000000   00000000INU5932 08                                            
322LW LOG MEX0000100000001651224112021C000030000000000000650000000000000650012000000000000007800000000000000000000000000000000000000000000000000000000000000000000000000000000000000000000000000000000002   135591780001195960912300246300100000514   00000000   00000000   00000000   00000000   00000000   00000000   00000000   00000000   00000000   00000000   00000000   00000000   00000000   00000000   00000000   00000000   00000000   00000000   00000000   00000000   00000000   00000000   00000000   00000000   00000000   00000000   00000000   00000000   00000000   00000000   00000000   00000000   00000000   00000000   00000000   00000000   00000000   00000000   00000000INU5932 08                                            
322LW LOG MEX0000100000001651325112021C000140000000000000000000000000000000000000000000000000000000000000000000000000000000000000000000000000000000000000000000000000000000000000000000000000000000000002   1355917800011959609123002463001000005200010000052500100000526   00000000   00000000   00000000   00000000   00000000   00000000   00000000   00000000   00000000   00000000   00000000   00000000   00000000   00000000   00000000   00000000   00000000   00000000   00000000   00000000   00000000   00000000   00000000   00000000   00000000   00000000   00000000   00000000   00000000   00000000   00000000   00000000   00000000   00000000   00000000   00000000   00000000INU5932 08                                            
322LW LOG MEX0000100000001651726112021C000220000000000000650000000000000650012000000000000007800000000000000000000000000000000000000000000000000000000000000000000000000000000000000000000000000000000002   1355917800011959609123002463001000005300010000053100100000531   00000000   00000000   00000000   00000000   00000000   00000000   00000000   00000000   00000000   00000000   00000000   00000000   00000000   00000000   00000000   00000000   00000000   00000000   00000000   00000000   00000000   00000000   00000000   00000000   00000000   00000000   00000000   00000000   00000000   00000000   00000000   00000000   00000000   00000000   00000000   00000000   00000000INU5932 08                                            
322LW LOG MEX0000100000001651826112021C000120000000000000650000000000000650012000000000000007800000000000000000000000000000000000000000000000000000000000000000000000000000000000000000000000000000000002   135591780001195960912300246300100000531   00000000   00000000   00000000   00000000   00000000   00000000   00000000   00000000   00000000   00000000   00000000   00000000   00000000   00000000   00000000   00000000   00000000   00000000   00000000   00000000   00000000   00000000   00000000   00000000   00000000   00000000   00000000   00000000   00000000   00000000   00000000   00000000   00000000   00000000   00000000   00000000   00000000   00000000   00000000INU5932 08                                            
322LW LOG MEX0000100000001652229112021C001400000000000000000000000000000000000000000000000000000000000000000000000000000000000000000000000000000000000000000000000000000000000000000000000000000000000002   1355917800011959609123002463001000005100010000051000100000510001000005110010000051100100000513001000005130010000051400100000514001000005160010000051600100000516001000005170010000051700100000522001000005250010000052500100000527001000005270010000053100100000533   00000000   00000000   00000000   00000000   00000000   00000000   00000000   00000000   00000000   00000000   00000000   00000000   00000000   00000000   00000000   00000000   00000000   00000000   00000000INU5932 08                                            
322LW LOG MEX0000100000001652329112021C005570000000000000000000000000000000000000000000000000000000000000000000000000000000000000000000000000000000000000000000000000000000000000000000000000000000000002   135591780001195960912300246300100000507001000005110010000051200100000512001000005120010000051200100000513001000005130010000051400100000514001000005150010000051500100000516001000005160010000051600100000517001000005170010000051800100000518001000005180010000051900100000519001000005200010000052000100000520001000005200010000052000100000521001000005210010000052100100000522001000005220010000052200100000522001000005230010000052300100000523001000005240010000052400100000524INC5932 08                                            
322LW LOG MEX0000100000001652329112021C005570000000000000000000000000000000000000000000000000000000000000000000000000000000000000000000000000000000000000000000000000000000000000000000000000000000000002   135591780001195960912300246300100000526001000005260010000052600100000533   00000000   00000000   00000000   00000000   00000000   00000000   00000000   00000000   00000000   00000000   00000000   00000000   00000000   00000000   00000000   00000000   00000000   00000000   00000000   00000000   00000000   00000000   00000000   00000000   00000000   00000000   00000000   00000000   00000000   00000000   00000000   00000000   00000000   00000000   00000000   00000000INC5932 08                                            
322LW LOG MEX0000100000000000130112021C000050000000000000650000000000000650012000000000000007800000000000000000000000000000000000000000000000000000000000000000000000000000000000000000000000000000000002   135591780001195960912300246300100000534   00000000   00000000   00000000   00000000   00000000   00000000   00000000   00000000   00000000   00000000   00000000   00000000   00000000   00000000   00000000   00000000   00000000   00000000   00000000   00000000   00000000   00000000   00000000   00000000   00000000   00000000   00000000   00000000   00000000   00000000   00000000   00000000   00000000   00000000   00000000   00000000   00000000   00000000   00000000INU5932 08                                            
322LW LOG MEX0000100000000000230112021C000010000000000000650000000000000650012000000000000007800000000000000000000000000000000000000000000000000000000000000000000000000000000000000000000000000000000002   135591780001195960912300246300100000027   00000000   00000000   00000000   00000000   00000000   00000000   00000000   00000000   00000000   00000000   00000000   00000000   00000000   00000000   00000000   00000000   00000000   00000000   00000000   00000000   00000000   00000000   00000000   00000000   00000000   00000000   00000000   00000000   00000000   00000000   00000000   00000000   00000000   00000000   00000000   00000000   00000000   00000000   00000000INU5932 08                                            
322LW LOG MEX0000100000001652530112021C000080000000000000650000000000000650012000000000000007800000000000000000000000000000000000000000000000000000000000000000000000000000000000000000000000000000000002   13559178000119596091230024630010000053300100000534   00000000   00000000   00000000   00000000   00000000   00000000   00000000   00000000   00000000   00000000   00000000   00000000   00000000   00000000   00000000   00000000   00000000   00000000   00000000   00000000   00000000   00000000   00000000   00000000   00000000   00000000   00000000   00000000   00000000   00000000   00000000   00000000   00000000   00000000   00000000   00000000   00000000   00000000INU5932 08                                            
322LW LOG MEX0000100000001652430112021C002350000000000129250000000000129250012000000000001551000000000000000000000000000000000000000000000000000000000000000000000000000000000000000000000000000000000002   135591780001195960912300246300100000513001000005130010000051300100000513001000005140010000051600100000516001000005180010000051900100000519001000005190010000051900100000519001000005190010000052000100000520001000005210010000052100100000521001000005210010000052100100000521001000005210010000052200100000522001000005220010000052200100000522001000005230010000052300100000523001000005230010000052300100000523001000005230010000052400100000524001000005250010000052500100000526INC5932 08                                            
322LW LOG MEX0000100000001652430112021C002350000000000129250000000000129250012000000000001551000000000000000000000000000000000000000000000000000000000000000000000000000000000000000000000000000000000002   1355917800011959609123002463001000005270010000052700100000527001000005280010000052800100000531001000005320010000053200100000534   00000000   00000000   00000000   00000000   00000000   00000000   00000000   00000000   00000000   00000000   00000000   00000000   00000000   00000000   00000000   00000000   00000000   00000000   00000000   00000000   00000000   00000000   00000000   00000000   00000000   00000000   00000000   00000000   00000000   00000000   00000000INC5932 08                                            
3230074000000002871000                                                                                                                                                                                                                                                                                                                                                                                                                                                                                                                                                                                                                                                                                                                                