000SP PARA                            TESTE-CAIXA POSTAL DESTINATARIO    0212211036COB02121036                                                                           
350COBRA02121036                                                                                                                                                         
35113559178000119LW LOGISTICA E TRANSPORTES LTDA (ME-SP)                                                                                                                  
352MATRIZ MEX0UNI02021002152211202106122021000000000621902COB00000000000000000000000000000006122021000000000000000BANCO ITAU S/A                     9293 00008989880 I   
352MATRIZ MEX0UNI02021002192911202128122021000000000428737COB00000000000000000000000000000028122021000000000000000BANCO ITAU S/A                     9293 00008989880 I   
352MATRIZ MEX0UNI02021002202911202113122021000000000595583COB00000000000000000000000000000013122021000000000000000BANCO ITAU S/A                     9293 00008989880 I   
3550003000000001646222                                                                                                                                                    
